{
  "_format": "hh-sol-artifact-1",
  "contractName": "InvoiceAgent",
  "sourceName": "contracts/InvoiceAgent.sol",
  "abi": [
    {
      "inputs": [
        {
          "internalType": "address",
          "name": "_usdc",
          "type": "address"
        }
      ],
      "stateMutability": "nonpayable",
      "type": "constructor"
    },
    {
      "inputs": [
        {
          "internalType": "address",
          "name": "owner",
          "type": "address"
        }
      ],
      "name": "OwnableInvalidOwner",
      "type": "error"
    },
    {
      "inputs": [
        {
          "internalType": "address",
          "name": "account",
          "type": "address"
        }
      ],
      "name": "OwnableUnauthorizedAccount",
      "type": "error"
    },
    {
      "inputs": [],
      "name": "ReentrancyGuardReentrantCall",
      "type": "error"
    },
    {
      "anonymous": false,
      "inputs": [
        {
          "indexed": true,
          "internalType": "uint256",
          "name": "invoiceId",
          "type": "uint256"
        },
        {
          "indexed": false,
          "internalType": "uint256",
          "name": "fee",
          "type": "uint256"
        }
      ],
      "name": "FeeCollected",
      "type": "event"
    },
    {
      "anonymous": false,
      "inputs": [
        {
          "indexed": true,
          "internalType": "uint256",
          "name": "invoiceId",
          "type": "uint256"
        },
        {
          "indexed": true,
          "internalType": "address",
          "name": "freelancer",
          "type": "address"
        },
        {
          "indexed": true,
          "internalType": "address",
          "name": "client",
          "type": "address"
        },
        {
          "indexed": false,
          "internalType": "uint256",
          "name": "totalAmount",
          "type": "uint256"
        },
        {
          "indexed": false,
          "internalType": "string",
          "name": "projectDescription",
          "type": "string"
        }
      ],
      "name": "InvoiceCreated",
      "type": "event"
    },
    {
      "anonymous": false,
      "inputs": [
        {
          "indexed": true,
          "internalType": "uint256",
          "name": "invoiceId",
          "type": "uint256"
        },
        {
          "indexed": false,
          "internalType": "uint256",
          "name": "milestoneIndex",
          "type": "uint256"
        },
        {
          "indexed": false,
          "internalType": "string",
          "name": "milestoneName",
          "type": "string"
        },
        {
          "indexed": false,
          "internalType": "uint256",
          "name": "amount",
          "type": "uint256"
        }
      ],
      "name": "MilestoneCompleted",
      "type": "event"
    },
    {
      "anonymous": false,
      "inputs": [
        {
          "indexed": true,
          "internalType": "address",
          "name": "previousOwner",
          "type": "address"
        },
        {
          "indexed": true,
          "internalType": "address",
          "name": "newOwner",
          "type": "address"
        }
      ],
      "name": "OwnershipTransferred",
      "type": "event"
    },
    {
      "anonymous": false,
      "inputs": [
        {
          "indexed": true,
          "internalType": "uint256",
          "name": "invoiceId",
          "type": "uint256"
        },
        {
          "indexed": true,
          "internalType": "address",
          "name": "freelancer",
          "type": "address"
        },
        {
          "indexed": false,
          "internalType": "uint256",
          "name": "amount",
          "type": "uint256"
        },
        {
          "indexed": false,
          "internalType": "uint256",
          "name": "fee",
          "type": "uint256"
        }
      ],
      "name": "PaymentReleased",
      "type": "event"
    },
    {
      "inputs": [
        {
          "internalType": "uint256",
          "name": "_invoiceId",
          "type": "uint256"
        },
        {
          "internalType": "uint256",
          "name": "_milestoneIndex",
          "type": "uint256"
        }
      ],
      "name": "completeMilestone",
      "outputs": [],
      "stateMutability": "nonpayable",
      "type": "function"
    },
    {
      "inputs": [
        {
          "internalType": "address",
          "name": "_freelancer",
          "type": "address"
        },
        {
          "internalType": "uint256",
          "name": "_totalAmount",
          "type": "uint256"
        },
        {
          "internalType": "string[]",
          "name": "_milestoneNames",
          "type": "string[]"
        },
        {
          "internalType": "uint256[]",
          "name": "_milestoneAmounts",
          "type": "uint256[]"
        },
        {
          "internalType": "string",
          "name": "_projectDescription",
          "type": "string"
        }
      ],
      "name": "createInvoice",
      "outputs": [],
      "stateMutability": "nonpayable",
      "type": "function"
    },
    {
      "inputs": [
        {
          "internalType": "uint256",
          "name": "_invoiceId",
          "type": "uint256"
        }
      ],
      "name": "emergencyRefund",
      "outputs": [],
      "stateMutability": "nonpayable",
      "type": "function"
    },
    {
      "inputs": [],
      "name": "feePercentage",
      "outputs": [
        {
          "internalType": "uint256",
          "name": "",
          "type": "uint256"
        }
      ],
      "stateMutability": "view",
      "type": "function"
    },
    {
      "inputs": [
        {
          "internalType": "uint256",
          "name": "_invoiceId",
          "type": "uint256"
        }
      ],
      "name": "getInvoice",
      "outputs": [
        {
          "internalType": "address",
          "name": "freelancer",
          "type": "address"
        },
        {
          "internalType": "address",
          "name": "client",
          "type": "address"
        },
        {
          "internalType": "uint256",
          "name": "totalAmount",
          "type": "uint256"
        },
        {
          "components": [
            {
              "internalType": "string",
              "name": "name",
              "type": "string"
            },
            {
              "internalType": "uint256",
              "name": "amount",
              "type": "uint256"
            },
            {
              "internalType": "bool",
              "name": "completed",
              "type": "bool"
            },
            {
              "internalType": "uint256",
              "name": "completedAt",
              "type": "uint256"
            }
          ],
          "internalType": "struct InvoiceAgent.Milestone[]",
          "name": "milestones",
          "type": "tuple[]"
        },
        {
          "internalType": "bool",
          "name": "paid",
          "type": "bool"
        },
        {
          "internalType": "uint256",
          "name": "createdAt",
          "type": "uint256"
        },
        {
          "internalType": "string",
          "name": "projectDescription",
          "type": "string"
        }
      ],
      "stateMutability": "view",
      "type": "function"
    },
    {
      "inputs": [],
      "name": "getInvoiceCount",
      "outputs": [
        {
          "internalType": "uint256",
          "name": "",
          "type": "uint256"
        }
      ],
      "stateMutability": "view",
      "type": "function"
    },
    {
      "inputs": [
        {
          "internalType": "address",
          "name": "_user",
          "type": "address"
        }
      ],
      "name": "getUserInvoices",
      "outputs": [
        {
          "internalType": "uint256[]",
          "name": "",
          "type": "uint256[]"
        }
      ],
      "stateMutability": "view",
      "type": "function"
    },
    {
      "inputs": [
        {
          "internalType": "uint256",
          "name": "",
          "type": "uint256"
        }
      ],
      "name": "invoices",
      "outputs": [
        {
          "internalType": "address",
          "name": "freelancer",
          "type": "address"
        },
        {
          "internalType": "address",
          "name": "client",
          "type": "address"
        },
        {
          "internalType": "uint256",
          "name": "totalAmount",
          "type": "uint256"
        },
        {
          "internalType": "bool",
          "name": "paid",
          "type": "bool"
        },
        {
          "internalType": "uint256",
          "name": "createdAt",
          "type": "uint256"
        },
        {
          "internalType": "string",
          "name": "projectDescription",
          "type": "string"
        }
      ],
      "stateMutability": "view",
      "type": "function"
    },
    {
      "inputs": [],
      "name": "nextInvoiceId",
      "outputs": [
        {
          "internalType": "uint256",
          "name": "",
          "type": "uint256"
        }
      ],
      "stateMutability": "view",
      "type": "function"
    },
    {
      "inputs": [],
      "name": "owner",
      "outputs": [
        {
          "internalType": "address",
          "name": "",
          "type": "address"
        }
      ],
      "stateMutability": "view",
      "type": "function"
    },
    {
      "inputs": [],
      "name": "renounceOwnership",
      "outputs": [],
      "stateMutability": "nonpayable",
      "type": "function"
    },
    {
      "inputs": [
        {
          "internalType": "address",
          "name": "newOwner",
          "type": "address"
        }
      ],
      "name": "transferOwnership",
      "outputs": [],
      "stateMutability": "nonpayable",
      "type": "function"
    },
    {
      "inputs": [
        {
          "internalType": "uint256",
          "name": "_newFeePercentage",
          "type": "uint256"
        }
      ],
      "name": "updateFeePercentage",
      "outputs": [],
      "stateMutability": "nonpayable",
      "type": "function"
    },
    {
      "inputs": [],
      "name": "usdc",
      "outputs": [
        {
          "internalType": "contract IERC20",
          "name": "",
          "type": "address"
        }
      ],
      "stateMutability": "view",
      "type": "function"
    },
    {
      "inputs": [
        {
          "internalType": "address",
          "name": "",
          "type": "address"
        },
        {
          "internalType": "uint256",
          "name": "",
          "type": "uint256"
        }
      ],
      "name": "userInvoices",
      "outputs": [
        {
          "internalType": "uint256",
          "name": "",
          "type": "uint256"
        }
      ],
      "stateMutability": "view",
      "type": "function"
    },
    {
      "inputs": [],
      "name": "withdrawFees",
      "outputs": [],
      "stateMutability": "nonpayable",
      "type": "function"
    }
  ],
  "bytecode": "0x608060405260c86003553480156200001657600080fd5b50604051620035183803806200351883398181016040528101906200003c919062000241565b33600073ffffffffffffffffffffffffffffffffffffffff168173ffffffffffffffffffffffffffffffffffffffff1603620000b25760006040517f1e4fbdf7000000000000000000000000000000000000000000000000000000008152600401620000a9919062000284565b60405180910390fd5b620000c3816200011360201b60201c565b506001808190555080600260006101000a81548173ffffffffffffffffffffffffffffffffffffffff021916908373ffffffffffffffffffffffffffffffffffffffff16021790555050620002a1565b60008060009054906101000a900473ffffffffffffffffffffffffffffffffffffffff169050816000806101000a81548173ffffffffffffffffffffffffffffffffffffffff021916908373ffffffffffffffffffffffffffffffffffffffff1602179055508173ffffffffffffffffffffffffffffffffffffffff168173ffffffffffffffffffffffffffffffffffffffff167f8be0079c531659141344cd1fd0a4f28419497f9722a3daafe3b4186f6b6457e060405160405180910390a35050565b600080fd5b600073ffffffffffffffffffffffffffffffffffffffff82169050919050565b60006200020982620001dc565b9050919050565b6200021b81620001fc565b81146200022757600080fd5b50565b6000815190506200023b8162000210565b92915050565b6000602082840312156200025a5762000259620001d7565b5b60006200026a848285016200022a565b91505092915050565b6200027e81620001fc565b82525050565b60006020820190506200029b600083018462000273565b92915050565b61326780620002b16000396000f3fe608060405234801561001057600080fd5b50600436106101005760003560e01c80636ff2a953116100975780638da5cb5b116100665780638da5cb5b14610292578063a001ecdd146102b0578063f2fde38b146102ce578063f326206b146102ea57610100565b80636ff2a9531461023057806370e5deb91461024e578063715018a61461026a5780637d6a59ed1461027457610100565b80633e413bee116100d35780633e413bee146101b7578063476343ee146101d55780634e6d1405146101df5780636cad3fb01461021457610100565b80630ad6b0a51461010557806324d3b3e2146101355780633a23cc0a146101655780633cf094b81461019b575b600080fd5b61011f600480360381019061011a9190611b08565b610306565b60405161012c9190611b57565b60405180910390f35b61014f600480360381019061014a9190611b72565b610337565b60405161015c9190611c5d565b60405180910390f35b61017f600480360381019061017a9190611c7f565b6103ce565b6040516101929796959493929190611ee4565b60405180910390f35b6101b560048036038101906101b09190612072565b61061f565b005b6101bf610c41565b6040516101cc91906121ad565b60405180910390f35b6101dd610c67565b005b6101f960048036038101906101f49190611c7f565b610e3b565b60405161020b969594939291906121c8565b60405180910390f35b61022e60048036038101906102299190611c7f565b610f4c565b005b610238610fa3565b6040516102459190611b57565b60405180910390f35b61026860048036038101906102639190611c7f565b610fa9565b005b610272611206565b005b61027c61121a565b6040516102899190611b57565b60405180910390f35b61029a611224565b6040516102a79190612230565b60405180910390f35b6102b861124d565b6040516102c59190611b57565b60405180910390f35b6102e860048036038101906102e39190611b72565b611253565b005b61030460048036038101906102ff919061224b565b6112d9565b005b6006602052816000526040600020818154811061032257600080fd5b90600052602060002001600091509150505481565b6060600660008373ffffffffffffffffffffffffffffffffffffffff1673ffffffffffffffffffffffffffffffffffffffff1681526020019081526020016000208054806020026020016040519081016040528092919081815260200182805480156103c257602002820191906000526020600020905b8154815260200190600101908083116103ae575b50505050509050919050565b6000806000606060008060606000600560008a815260200190815260200160002090508060000160009054906101000a900473ffffffffffffffffffffffffffffffffffffffff168160010160009054906101000a900473ffffffffffffffffffffffffffffffffffffffff168260020154836003018460040160009054906101000a900460ff1685600501548660060183805480602002602001604051908101604052809291908181526020016000905b8282101561057357838290600052602060002090600402016040518060800160405290816000820180546104b3906122ba565b80601f01602080910402602001604051908101604052809291908181526020018280546104df906122ba565b801561052c5780601f106105015761010080835404028352916020019161052c565b820191906000526020600020905b81548152906001019060200180831161050f57829003601f168201915b50505050508152602001600182015481526020016002820160009054906101000a900460ff1615151515815260200160038201548152505081526020019060010190610480565b505050509350808054610585906122ba565b80601f01602080910402602001604051908101604052809291908181526020018280546105b1906122ba565b80156105fe5780601f106105d3576101008083540402835291602001916105fe565b820191906000526020600020905b8154815290600101906020018083116105e157829003601f168201915b50505050509050975097509750975097509750975050919395979092949650565b6106276118c8565b600073ffffffffffffffffffffffffffffffffffffffff168873ffffffffffffffffffffffffffffffffffffffff1603610696576040517f08c379a000000000000000000000000000000000000000000000000000000000815260040161068d90612337565b60405180910390fd5b600086869050116106dc576040517f08c379a00000000000000000000000000000000000000000000000000000000081526004016106d3906123a3565b60405180910390fd5b838390508686905014610724576040517f08c379a000000000000000000000000000000000000000000000000000000000815260040161071b9061240f565b60405180910390fd5b60008711610767576040517f08c379a000000000000000000000000000000000000000000000000000000000815260040161075e9061247b565b60405180910390fd5b6000805b858590508110156107b0578585828181106107895761078861249b565b5b905060200201358261079b91906124f9565b915080806107a89061252d565b91505061076b565b508781146107f3576040517f08c379a00000000000000000000000000000000000000000000000000000000081526004016107ea906125c1565b60405180910390fd5b600260009054906101000a900473ffffffffffffffffffffffffffffffffffffffff1673ffffffffffffffffffffffffffffffffffffffff166323b872dd33308b6040518463ffffffff1660e01b8152600401610852939291906125e1565b6020604051808303816000875af1158015610871573d6000803e3d6000fd5b505050506040513d601f19601f820116820180604052508101906108959190612644565b6108d4576040517f08c379a00000000000000000000000000000000000000000000000000000000081526004016108cb906126bd565b60405180910390fd5b60006005600060045481526020019081526020016000209050898160000160006101000a81548173ffffffffffffffffffffffffffffffffffffffff021916908373ffffffffffffffffffffffffffffffffffffffff160217905550338160010160006101000a81548173ffffffffffffffffffffffffffffffffffffffff021916908373ffffffffffffffffffffffffffffffffffffffff160217905550888160020181905550838382600601918261098f9291906128b9565b5042816005018190555060005b88889050811015610ad8578160030160405180608001604052808b8b858181106109c9576109c861249b565b5b90506020028101906109db9190612998565b8080601f016020809104026020016040519081016040528093929190818152602001838380828437600081840152601f19601f820116905080830192505050505050508152602001898985818110610a3657610a3561249b565b5b905060200201358152602001600015158152602001600081525090806001815401808255809150506001900390600052602060002090600402016000909190919091506000820151816000019081610a8e91906129fb565b506020820151816001015560408201518160020160006101000a81548160ff0219169083151502179055506060820151816003015550508080610ad09061252d565b91505061099c565b50600660008b73ffffffffffffffffffffffffffffffffffffffff1673ffffffffffffffffffffffffffffffffffffffff1681526020019081526020016000206004549080600181540180825580915050600190039060005260206000200160009091909190915055600660003373ffffffffffffffffffffffffffffffffffffffff1673ffffffffffffffffffffffffffffffffffffffff16815260200190815260200160002060045490806001815401808255809150506001900390600052602060002001600090919091909150553373ffffffffffffffffffffffffffffffffffffffff168a73ffffffffffffffffffffffffffffffffffffffff166004547f195d340bd25bc3523c352bd8dc52c6887d0f5a23a8891381d5998c06d07575f68c8888604051610c0d93929190612b09565b60405180910390a460046000815480929190610c289061252d565b91905055505050610c3761190e565b5050505050505050565b600260009054906101000a900473ffffffffffffffffffffffffffffffffffffffff1681565b610c6f611917565b6000600260009054906101000a900473ffffffffffffffffffffffffffffffffffffffff1673ffffffffffffffffffffffffffffffffffffffff166370a08231306040518263ffffffff1660e01b8152600401610ccc9190612230565b602060405180830381865afa158015610ce9573d6000803e3d6000fd5b505050506040513d601f19601f82011682018060405250810190610d0d9190612b50565b905060008111610d52576040517f08c379a0000000000000000000000000000000000000000000000000000000008152600401610d4990612bc9565b60405180910390fd5b600260009054906101000a900473ffffffffffffffffffffffffffffffffffffffff1673ffffffffffffffffffffffffffffffffffffffff1663a9059cbb610d98611224565b836040518363ffffffff1660e01b8152600401610db6929190612be9565b6020604051808303816000875af1158015610dd5573d6000803e3d6000fd5b505050506040513d601f19601f82011682018060405250810190610df99190612644565b610e38576040517f08c379a0000000000000000000000000000000000000000000000000000000008152600401610e2f90612c5e565b60405180910390fd5b50565b60056020528060005260406000206000915090508060000160009054906101000a900473ffffffffffffffffffffffffffffffffffffffff16908060010160009054906101000a900473ffffffffffffffffffffffffffffffffffffffff16908060020154908060040160009054906101000a900460ff1690806005015490806006018054610ec9906122ba565b80601f0160208091040260200160405190810160405280929190818152602001828054610ef5906122ba565b8015610f425780601f10610f1757610100808354040283529160200191610f42565b820191906000526020600020905b815481529060010190602001808311610f2557829003601f168201915b5050505050905086565b610f54611917565b6101f4811115610f99576040517f08c379a0000000000000000000000000000000000000000000000000000000008152600401610f9090612cca565b60405180910390fd5b8060038190555050565b60045481565b610fb1611917565b6000600560008381526020019081526020016000209050600454821061100c576040517f08c379a000000000000000000000000000000000000000000000000000000000815260040161100390612d36565b60405180910390fd5b8060040160009054906101000a900460ff161561105e576040517f08c379a000000000000000000000000000000000000000000000000000000000815260040161105590612da2565b60405180910390fd5b6000805b82600301805490508110156110f3578260030181815481106110875761108661249b565b5b906000526020600020906004020160020160009054906101000a900460ff166110e0578260030181815481106110c0576110bf61249b565b5b906000526020600020906004020160010154826110dd91906124f9565b91505b80806110eb9061252d565b915050611062565b50600081111561120157600260009054906101000a900473ffffffffffffffffffffffffffffffffffffffff1673ffffffffffffffffffffffffffffffffffffffff1663a9059cbb8360010160009054906101000a900473ffffffffffffffffffffffffffffffffffffffff16836040518363ffffffff1660e01b815260040161117e929190612be9565b6020604051808303816000875af115801561119d573d6000803e3d6000fd5b505050506040513d601f19601f820116820180604052508101906111c19190612644565b611200576040517f08c379a00000000000000000000000000000000000000000000000000000000081526004016111f790612e0e565b60405180910390fd5b5b505050565b61120e611917565b611218600061199e565b565b6000600454905090565b60008060009054906101000a900473ffffffffffffffffffffffffffffffffffffffff16905090565b60035481565b61125b611917565b600073ffffffffffffffffffffffffffffffffffffffff168173ffffffffffffffffffffffffffffffffffffffff16036112cd5760006040517f1e4fbdf70000000000000000000000000000000000000000000000000000000081526004016112c49190612230565b60405180910390fd5b6112d68161199e565b50565b6112e16118c8565b6000600560008481526020019081526020016000209050600454831061133c576040517f08c379a000000000000000000000000000000000000000000000000000000000815260040161133390612d36565b60405180910390fd5b8060010160009054906101000a900473ffffffffffffffffffffffffffffffffffffffff1673ffffffffffffffffffffffffffffffffffffffff163373ffffffffffffffffffffffffffffffffffffffff1614806113cc575061139d611224565b73ffffffffffffffffffffffffffffffffffffffff163373ffffffffffffffffffffffffffffffffffffffff16145b61140b576040517f08c379a000000000000000000000000000000000000000000000000000000000815260040161140290612ea0565b60405180910390fd5b80600301805490508210611454576040517f08c379a000000000000000000000000000000000000000000000000000000000815260040161144b90612f0c565b60405180910390fd5b80600301828154811061146a5761146961249b565b5b906000526020600020906004020160020160009054906101000a900460ff16156114c9576040517f08c379a00000000000000000000000000000000000000000000000000000000081526004016114c090612f78565b60405180910390fd5b60008160030183815481106114e1576114e061249b565b5b9060005260206000209060040201905060018160020160006101000a81548160ff0219169083151502179055504281600301819055506000816001015490506000612710600354836115339190612f98565b61153d9190613009565b90506000818361154d919061303a565b9050600260009054906101000a900473ffffffffffffffffffffffffffffffffffffffff1673ffffffffffffffffffffffffffffffffffffffff1663a9059cbb8660000160009054906101000a900473ffffffffffffffffffffffffffffffffffffffff16836040518363ffffffff1660e01b81526004016115d0929190612be9565b6020604051808303816000875af11580156115ef573d6000803e3d6000fd5b505050506040513d601f19601f820116820180604052508101906116139190612644565b611652576040517f08c379a0000000000000000000000000000000000000000000000000000000008152600401611649906130ba565b60405180910390fd5b600260009054906101000a900473ffffffffffffffffffffffffffffffffffffffff1673ffffffffffffffffffffffffffffffffffffffff1663a9059cbb611698611224565b846040518363ffffffff1660e01b81526004016116b6929190612be9565b6020604051808303816000875af11580156116d5573d6000803e3d6000fd5b505050506040513d601f19601f820116820180604052508101906116f99190612644565b611738576040517f08c379a000000000000000000000000000000000000000000000000000000000815260040161172f90613126565b60405180910390fd5b867f43241e4a0fc38936c37db74bf0a325b243c21f24da151c1e534f9ca20c79a43187866000018660405161176f939291906131ca565b60405180910390a28460000160009054906101000a900473ffffffffffffffffffffffffffffffffffffffff1673ffffffffffffffffffffffffffffffffffffffff16877f8cdc8dc08e54a4e57f52077ecf1b4c508758513439cae2aa325dcc85b922fca883856040516117e4929190613208565b60405180910390a3867faf7c505ee772ec188af7067e1f73db08ab028e3d564273442b907742b9c41fa08360405161181c9190611b57565b60405180910390a260006001905060005b8660030180549050811015611891578660030181815481106118525761185161249b565b5b906000526020600020906004020160020160009054906101000a900460ff1661187e5760009150611891565b80806118899061252d565b91505061182d565b5080156118b65760018660040160006101000a81548160ff0219169083151502179055505b5050505050506118c461190e565b5050565b600260015403611904576040517f3ee5aeb500000000000000000000000000000000000000000000000000000000815260040160405180910390fd5b6002600181905550565b60018081905550565b61191f611a62565b73ffffffffffffffffffffffffffffffffffffffff1661193d611224565b73ffffffffffffffffffffffffffffffffffffffff161461199c57611960611a62565b6040517f118cdaa70000000000000000000000000000000000000000000000000000000081526004016119939190612230565b60405180910390fd5b565b60008060009054906101000a900473ffffffffffffffffffffffffffffffffffffffff169050816000806101000a81548173ffffffffffffffffffffffffffffffffffffffff021916908373ffffffffffffffffffffffffffffffffffffffff1602179055508173ffffffffffffffffffffffffffffffffffffffff168173ffffffffffffffffffffffffffffffffffffffff167f8be0079c531659141344cd1fd0a4f28419497f9722a3daafe3b4186f6b6457e060405160405180910390a35050565b600033905090565b600080fd5b600080fd5b600073ffffffffffffffffffffffffffffffffffffffff82169050919050565b6000611a9f82611a74565b9050919050565b611aaf81611a94565b8114611aba57600080fd5b50565b600081359050611acc81611aa6565b92915050565b6000819050919050565b611ae581611ad2565b8114611af057600080fd5b50565b600081359050611b0281611adc565b92915050565b60008060408385031215611b1f57611b1e611a6a565b5b6000611b2d85828601611abd565b9250506020611b3e85828601611af3565b9150509250929050565b611b5181611ad2565b82525050565b6000602082019050611b6c6000830184611b48565b92915050565b600060208284031215611b8857611b87611a6a565b5b6000611b9684828501611abd565b91505092915050565b600081519050919050565b600082825260208201905092915050565b6000819050602082019050919050565b611bd481611ad2565b82525050565b6000611be68383611bcb565b60208301905092915050565b6000602082019050919050565b6000611c0a82611b9f565b611c148185611baa565b9350611c1f83611bbb565b8060005b83811015611c50578151611c378882611bda565b9750611c4283611bf2565b925050600181019050611c23565b5085935050505092915050565b60006020820190508181036000830152611c778184611bff565b905092915050565b600060208284031215611c9557611c94611a6a565b5b6000611ca384828501611af3565b91505092915050565b611cb581611a94565b82525050565b600081519050919050565b600082825260208201905092915050565b6000819050602082019050919050565b600081519050919050565b600082825260208201905092915050565b60005b83811015611d21578082015181840152602081019050611d06565b60008484015250505050565b6000601f19601f8301169050919050565b6000611d4982611ce7565b611d538185611cf2565b9350611d63818560208601611d03565b611d6c81611d2d565b840191505092915050565b60008115159050919050565b611d8c81611d77565b82525050565b60006080830160008301518482036000860152611daf8282611d3e565b9150506020830151611dc46020860182611bcb565b506040830151611dd76040860182611d83565b506060830151611dea6060860182611bcb565b508091505092915050565b6000611e018383611d92565b905092915050565b6000602082019050919050565b6000611e2182611cbb565b611e2b8185611cc6565b935083602082028501611e3d85611cd7565b8060005b85811015611e795784840389528151611e5a8582611df5565b9450611e6583611e09565b925060208a01995050600181019050611e41565b50829750879550505050505092915050565b611e9481611d77565b82525050565b600082825260208201905092915050565b6000611eb682611ce7565b611ec08185611e9a565b9350611ed0818560208601611d03565b611ed981611d2d565b840191505092915050565b600060e082019050611ef9600083018a611cac565b611f066020830189611cac565b611f136040830188611b48565b8181036060830152611f258187611e16565b9050611f346080830186611e8b565b611f4160a0830185611b48565b81810360c0830152611f538184611eab565b905098975050505050505050565b600080fd5b600080fd5b600080fd5b60008083601f840112611f8657611f85611f61565b5b8235905067ffffffffffffffff811115611fa357611fa2611f66565b5b602083019150836020820283011115611fbf57611fbe611f6b565b5b9250929050565b60008083601f840112611fdc57611fdb611f61565b5b8235905067ffffffffffffffff811115611ff957611ff8611f66565b5b60208301915083602082028301111561201557612014611f6b565b5b9250929050565b60008083601f84011261203257612031611f61565b5b8235905067ffffffffffffffff81111561204f5761204e611f66565b5b60208301915083600182028301111561206b5761206a611f6b565b5b9250929050565b60008060008060008060008060a0898b03121561209257612091611a6a565b5b60006120a08b828c01611abd565b98505060206120b18b828c01611af3565b975050604089013567ffffffffffffffff8111156120d2576120d1611a6f565b5b6120de8b828c01611f70565b9650965050606089013567ffffffffffffffff81111561210157612100611a6f565b5b61210d8b828c01611fc6565b9450945050608089013567ffffffffffffffff8111156121305761212f611a6f565b5b61213c8b828c0161201c565b92509250509295985092959890939650565b6000819050919050565b600061217361216e61216984611a74565b61214e565b611a74565b9050919050565b600061218582612158565b9050919050565b60006121978261217a565b9050919050565b6121a78161218c565b82525050565b60006020820190506121c2600083018461219e565b92915050565b600060c0820190506121dd6000830189611cac565b6121ea6020830188611cac565b6121f76040830187611b48565b6122046060830186611e8b565b6122116080830185611b48565b81810360a08301526122238184611eab565b9050979650505050505050565b60006020820190506122456000830184611cac565b92915050565b6000806040838503121561226257612261611a6a565b5b600061227085828601611af3565b925050602061228185828601611af3565b9150509250929050565b7f4e487b7100000000000000000000000000000000000000000000000000000000600052602260045260246000fd5b600060028204905060018216806122d257607f821691505b6020821081036122e5576122e461228b565b5b50919050565b7f496e76616c696420667265656c616e6365722061646472657373000000000000600082015250565b6000612321601a83611e9a565b915061232c826122eb565b602082019050919050565b6000602082019050818103600083015261235081612314565b9050919050565b7f4174206c65617374206f6e65206d696c6573746f6e6520726571756972656400600082015250565b600061238d601f83611e9a565b915061239882612357565b602082019050919050565b600060208201905081810360008301526123bc81612380565b9050919050565b7f417272617973206c656e677468206d69736d6174636800000000000000000000600082015250565b60006123f9601683611e9a565b9150612404826123c3565b602082019050919050565b60006020820190508181036000830152612428816123ec565b9050919050565b7f416d6f756e74206d7573742062652067726561746572207468616e2030000000600082015250565b6000612465601d83611e9a565b91506124708261242f565b602082019050919050565b6000602082019050818103600083015261249481612458565b9050919050565b7f4e487b7100000000000000000000000000000000000000000000000000000000600052603260045260246000fd5b7f4e487b7100000000000000000000000000000000000000000000000000000000600052601160045260246000fd5b600061250482611ad2565b915061250f83611ad2565b9250828201905080821115612527576125266124ca565b5b92915050565b600061253882611ad2565b91507fffffffffffffffffffffffffffffffffffffffffffffffffffffffffffffffff820361256a576125696124ca565b5b600182019050919050565b7f4d696c6573746f6e6573206d7573742073756d20746f20746f74616c00000000600082015250565b60006125ab601c83611e9a565b91506125b682612575565b602082019050919050565b600060208201905081810360008301526125da8161259e565b9050919050565b60006060820190506125f66000830186611cac565b6126036020830185611cac565b6126106040830184611b48565b949350505050565b61262181611d77565b811461262c57600080fd5b50565b60008151905061263e81612618565b92915050565b60006020828403121561265a57612659611a6a565b5b60006126688482850161262f565b91505092915050565b7f55534443207472616e73666572206661696c6564000000000000000000000000600082015250565b60006126a7601483611e9a565b91506126b282612671565b602082019050919050565b600060208201905081810360008301526126d68161269a565b9050919050565b600082905092915050565b7f4e487b7100000000000000000000000000000000000000000000000000000000600052604160045260246000fd5b60008190508160005260206000209050919050565b60006020601f8301049050919050565b600082821b905092915050565b6000600883026127797fffffffffffffffffffffffffffffffffffffffffffffffffffffffffffffffff8261273c565b612783868361273c565b95508019841693508086168417925050509392505050565b60006127b66127b16127ac84611ad2565b61214e565b611ad2565b9050919050565b6000819050919050565b6127d08361279b565b6127e46127dc826127bd565b848454612749565b825550505050565b600090565b6127f96127ec565b6128048184846127c7565b505050565b5b818110156128285761281d6000826127f1565b60018101905061280a565b5050565b601f82111561286d5761283e81612717565b6128478461272c565b81016020851015612856578190505b61286a6128628561272c565b830182612809565b50505b505050565b600082821c905092915050565b600061289060001984600802612872565b1980831691505092915050565b60006128a9838361287f565b9150826002028217905092915050565b6128c383836126dd565b67ffffffffffffffff8111156128dc576128db6126e8565b5b6128e682546122ba565b6128f182828561282c565b6000601f831160018114612920576000841561290e578287013590505b612918858261289d565b865550612980565b601f19841661292e86612717565b60005b8281101561295657848901358255600182019150602085019450602081019050612931565b86831015612973578489013561296f601f89168261287f565b8355505b6001600288020188555050505b50505050505050565b600080fd5b600080fd5b600080fd5b600080833560016020038436030381126129b5576129b4612989565b5b80840192508235915067ffffffffffffffff8211156129d7576129d661298e565b5b6020830192506001820236038313156129f3576129f2612993565b5b509250929050565b612a0482611ce7565b67ffffffffffffffff811115612a1d57612a1c6126e8565b5b612a2782546122ba565b612a3282828561282c565b600060209050601f831160018114612a655760008415612a53578287015190505b612a5d858261289d565b865550612ac5565b601f198416612a7386612717565b60005b82811015612a9b57848901518255600182019150602085019450602081019050612a76565b86831015612ab85784890151612ab4601f89168261287f565b8355505b6001600288020188555050505b505050505050565b82818337600083830152505050565b6000612ae88385611e9a565b9350612af5838584612acd565b612afe83611d2d565b840190509392505050565b6000604082019050612b1e6000830186611b48565b8181036020830152612b31818486612adc565b9050949350505050565b600081519050612b4a81611adc565b92915050565b600060208284031215612b6657612b65611a6a565b5b6000612b7484828501612b3b565b91505092915050565b7f4e6f206665657320746f20776974686472617700000000000000000000000000600082015250565b6000612bb3601383611e9a565b9150612bbe82612b7d565b602082019050919050565b60006020820190508181036000830152612be281612ba6565b9050919050565b6000604082019050612bfe6000830185611cac565b612c0b6020830184611b48565b9392505050565b7f466565207769746864726177616c206661696c65640000000000000000000000600082015250565b6000612c48601583611e9a565b9150612c5382612c12565b602082019050919050565b60006020820190508181036000830152612c7781612c3b565b9050919050565b7f4665652063616e6e6f7420657863656564203525000000000000000000000000600082015250565b6000612cb4601483611e9a565b9150612cbf82612c7e565b602082019050919050565b60006020820190508181036000830152612ce381612ca7565b9050919050565b7f496e766f69636520646f6573206e6f7420657869737400000000000000000000600082015250565b6000612d20601683611e9a565b9150612d2b82612cea565b602082019050919050565b60006020820190508181036000830152612d4f81612d13565b9050919050565b7f496e766f69636520616c72656164792070616964000000000000000000000000600082015250565b6000612d8c601483611e9a565b9150612d9782612d56565b602082019050919050565b60006020820190508181036000830152612dbb81612d7f565b9050919050565b7f526566756e64206661696c656400000000000000000000000000000000000000600082015250565b6000612df8600d83611e9a565b9150612e0382612dc2565b602082019050919050565b60006020820190508181036000830152612e2781612deb565b9050919050565b7f4f6e6c7920636c69656e74206f72206167656e742063616e20636f6d706c657460008201527f65206d696c6573746f6e65000000000000000000000000000000000000000000602082015250565b6000612e8a602b83611e9a565b9150612e9582612e2e565b604082019050919050565b60006020820190508181036000830152612eb981612e7d565b9050919050565b7f496e76616c6964206d696c6573746f6e6520696e646578000000000000000000600082015250565b6000612ef6601783611e9a565b9150612f0182612ec0565b602082019050919050565b60006020820190508181036000830152612f2581612ee9565b9050919050565b7f4d696c6573746f6e6520616c726561647920636f6d706c657465640000000000600082015250565b6000612f62601b83611e9a565b9150612f6d82612f2c565b602082019050919050565b60006020820190508181036000830152612f9181612f55565b9050919050565b6000612fa382611ad2565b9150612fae83611ad2565b9250828202612fbc81611ad2565b91508282048414831517612fd357612fd26124ca565b5b5092915050565b7f4e487b7100000000000000000000000000000000000000000000000000000000600052601260045260246000fd5b600061301482611ad2565b915061301f83611ad2565b92508261302f5761302e612fda565b5b828204905092915050565b600061304582611ad2565b915061305083611ad2565b9250828203905081811115613068576130676124ca565b5b92915050565b7f467265656c616e636572207061796d656e74206661696c656400000000000000600082015250565b60006130a4601983611e9a565b91506130af8261306e565b602082019050919050565b600060208201905081810360008301526130d381613097565b9050919050565b7f46656520636f6c6c656374696f6e206661696c65640000000000000000000000600082015250565b6000613110601583611e9a565b915061311b826130da565b602082019050919050565b6000602082019050818103600083015261313f81613103565b9050919050565b60008154613153816122ba565b61315d8186611e9a565b94506001821660008114613178576001811461318e576131c1565b60ff1983168652811515602002860193506131c1565b61319785612717565b60005b838110156131b95781548189015260018201915060208101905061319a565b808801955050505b50505092915050565b60006060820190506131df6000830186611b48565b81810360208301526131f18185613146565b90506132006040830184611b48565b949350505050565b600060408201905061321d6000830185611b48565b61322a6020830184611b48565b939250505056fea26469706673582212205b46fe38535b3a65cfcfbe79f0e2605d50c1054636c0f9f791adb251bd2c37d864736f6c63430008140033",
  "linkReferences": {},
  "deployedLinkReferences": {}
}